:03000000020800F3
:0C080000787FE4F6D8FD758111020847EE
:0C08CF000A084079243019120278001049
:10088C00E4FDFCC3ED9FEE6480F8EC648098501599
:10089C00E4FBFA0BBB00010AEB647D4A70F50DBD5D
:0508AC0000010C80DEDC
:0108B1002224
:1008B200900000AF8274082FF8E6F5A07FE87E036F
:0C08C20012088CA3E582640A458370E7ED
:0108CE002207
:10080C000208B2E493A3F8E493A34003F68001F248
:10081C0008DFF48029E493A3F85407240CC8C333ED
:10082C00C4540F4420C8834004F456800146F6DFBC
:10083C00E4800B01020408102040809008CFE47E75
:10084C00019360BCA3FF543F30E509541FFEE493B1
:10085C00A360010ECF54C025E060A840B8E493A378
:10086C00FAE493A3F8E493A3C8C582C8CAC583CAA3
:10087C00F0A3C8C582C8CAC583CADFE9DEE780BE5B
:0108DB00001C
:00000001FF
