:03000000020800F3
:0C080000787FE4F6D8FD758115020847EA
:0C09A8000A08407924301912027800106F
:10098200E4FDFCC3ED9FEE6480F8EC6480985015A2
:10099200E4FBFA0BBB00010AEB647D4A70F50DBD66
:0509A20000010C80DEE5
:0109A700222D
:10091700E4F512F513E4F514F515AE12AF137C00E8
:100927007D0A12088C74082FF8E6F5A0C2B17F641F
:100937007E00120982D2B1AE12AF137C007D0A127B
:10094700088C74082DF8E6F5A0C2B07F647E00120B
:100957000982D2B00515E51570020514C3940AE59E
:10096700146480948040B30513E51370020512C325
:0A0977009464E51264809480409BB4
:010981002253
:0509B50012091780FB90
:10080C000209B5E493A3F8E493A34003F68001F244
:10081C0008DFF48029E493A3F85407240CC8C333ED
:10082C00C4540F4420C8834004F456800146F6DFBC
:10083C00E4800B01020408102040809009A8E47E9B
:10084C00019360BCA3FF543F30E509541FFEE493B1
:10085C00A360010ECF54C025E060A840B8E493A378
:10086C00FAE493A3F8E493A3C8C582C8CAC583CAA3
:10087C00F0A3C8C582C8CAC583CADFE9DEE780BE5B
:0109B4000042
:10088C00C2D5EC30E709B2D5E4C39DFDE49CFCEE87
:10089C0030E715B2D5E4C39FFFE49EFE1208C2C335
:1008AC00E49DFDE49CFC80031208C230D507C3E430
:0608BC009FFFE49EFE22F6
:1008C200BC000BBE0029EF8DF084FFADF022E4CC1A
:1008D200F875F008EF2FFFEE33FEEC33FCEE9DECE3
:1008E200984005FCEE9DFE0FD5F0E9E4CEFD22ED29
:1008F200F8F5F0EE8420D21CFEADF075F008EF2F73
:10090200FFED33FD4007985006D5F0F222C398FD63
:050912000FD5F0EA2200
:00000001FF
