:030000000208E50E
:0C08E500787FE4F6D8FD7581070208005A
:1008BF00E4FDFCC3ED9FEE6480F8EC648098501566
:1008CF00E4FBFA0BBB00010AEB647D4A70F50DBD2A
:0508DF0000010C80DEA9
:0108E40022F1
:10080000D2B1900000E4F5A020B101A3E58264011B
:1008100045837005D2A00208A3E582640245837077
:1008200006D2A0D2A1807CE582640345837008D201
:10083000A0D2A1D2A2806CE58264044583700AD262
:10084000A0D2A1D2A2D2A3805AE5826405458370CA
:100850000CD2A0D2A1D2A2D2A3D2A48046E58264B7
:10086000064583700ED2A0D2A1D2A2D2A3D2A4D226
:10087000A58030E582640745837010D2A0D2A1D252
:10088000A2D2A3D2A4D2A5D2A68018E5826408453C
:1008900083701AD2A0D2A1D2A2D2A3D2A4D2A5D2BE
:1008A000A6D2A77FF47E011208BF020805E4F5A0D6
:0F08B0007FF47E011208BFE4F583F5820208058C
:00000001FF
